{
  "contractName": "Transaction",
  "abi": [
    {
      "constant": true,
      "inputs": [
        {
          "name": "",
          "type": "uint256"
        }
      ],
      "name": "transactions",
      "outputs": [
        {
          "name": "id",
          "type": "uint256"
        },
        {
          "name": "seller",
          "type": "address"
        },
        {
          "name": "buyer",
          "type": "address"
        },
        {
          "name": "itemId",
          "type": "bytes16"
        },
        {
          "name": "typeItem",
          "type": "bytes8"
        },
        {
          "name": "location",
          "type": "string"
        },
        {
          "name": "pictureHash",
          "type": "string"
        },
        {
          "name": "receiptHash",
          "type": "bytes16"
        },
        {
          "name": "comment",
          "type": "string"
        },
        {
          "name": "status",
          "type": "bytes8"
        },
        {
          "name": "_price",
          "type": "uint256"
        }
      ],
      "payable": false,
      "stateMutability": "view",
      "type": "function"
    },
    {
      "constant": true,
      "inputs": [
        {
          "name": "",
          "type": "bytes16"
        }
      ],
      "name": "fundsLocked",
      "outputs": [
        {
          "name": "",
          "type": "uint256"
        }
      ],
      "payable": false,
      "stateMutability": "view",
      "type": "function"
    },
    {
      "constant": false,
      "inputs": [
        {
          "name": "newOwner",
          "type": "address"
        }
      ],
      "name": "transferOwnership",
      "outputs": [],
      "payable": false,
      "stateMutability": "nonpayable",
      "type": "function"
    },
    {
      "anonymous": false,
      "inputs": [
        {
          "indexed": true,
          "name": "_id",
          "type": "uint256"
        },
        {
          "indexed": true,
          "name": "_itemId",
          "type": "bytes16"
        },
        {
          "indexed": false,
          "name": "_seller",
          "type": "address"
        },
        {
          "indexed": false,
          "name": "_buyer",
          "type": "address"
        },
        {
          "indexed": false,
          "name": "_price",
          "type": "uint256"
        }
      ],
      "name": "BuyItem",
      "type": "event"
    },
    {
      "constant": false,
      "inputs": [],
      "name": "kill",
      "outputs": [],
      "payable": false,
      "stateMutability": "nonpayable",
      "type": "function"
    },
    {
      "constant": true,
      "inputs": [],
      "name": "getNumberOfTransactions",
      "outputs": [
        {
          "name": "",
          "type": "uint256"
        }
      ],
      "payable": false,
      "stateMutability": "view",
      "type": "function"
    },
    {
      "constant": true,
      "inputs": [],
      "name": "getSales",
      "outputs": [
        {
          "name": "",
          "type": "uint256[]"
        }
      ],
      "payable": false,
      "stateMutability": "view",
      "type": "function"
    },
    {
      "constant": true,
      "inputs": [],
      "name": "getPurchases",
      "outputs": [
        {
          "name": "",
          "type": "uint256[]"
        }
      ],
      "payable": false,
      "stateMutability": "view",
      "type": "function"
    },
    {
      "constant": false,
      "inputs": [
        {
          "name": "_seller",
          "type": "address"
        },
        {
          "name": "_itemId",
          "type": "bytes16"
        },
        {
          "name": "_typeItem",
          "type": "bytes8"
        },
        {
          "name": "_location",
          "type": "string"
        },
        {
          "name": "_pictureHash",
          "type": "string"
        },
        {
          "name": "_comment",
          "type": "string"
        },
        {
          "name": "_status",
          "type": "bytes8"
        },
        {
          "name": "_price",
          "type": "uint256"
        }
      ],
      "name": "buyItem",
      "outputs": [],
      "payable": true,
      "stateMutability": "payable",
      "type": "function"
    },
    {
      "constant": false,
      "inputs": [
        {
          "name": "_seller",
          "type": "address"
        },
        {
          "name": "_itemId",
          "type": "bytes16"
        },
        {
          "name": "_price",
          "type": "uint256"
        }
      ],
      "name": "sendAdditionalFunds",
      "outputs": [],
      "payable": true,
      "stateMutability": "payable",
      "type": "function"
    },
    {
      "constant": false,
      "inputs": [
        {
          "name": "_itemId",
          "type": "bytes16"
        }
      ],
      "name": "unlockFunds",
      "outputs": [],
      "payable": false,
      "stateMutability": "nonpayable",
      "type": "function"
    },
    {
      "constant": false,
      "inputs": [
        {
          "name": "seller",
          "type": "address"
        }
      ],
      "name": "sendAmount",
      "outputs": [],
      "payable": true,
      "stateMutability": "payable",
      "type": "function"
    },
    {
      "constant": false,
      "inputs": [
        {
          "name": "source",
          "type": "string"
        }
      ],
      "name": "stringToBytes8",
      "outputs": [
        {
          "name": "result",
          "type": "bytes8"
        }
      ],
      "payable": false,
      "stateMutability": "nonpayable",
      "type": "function"
    }
  ],
  "bytecode": "0x6080604052336000806101000a81548173ffffffffffffffffffffffffffffffffffffffff021916908373ffffffffffffffffffffffffffffffffffffffff160217905550611d09806100536000396000f3006080604052600436106100ba576000357c0100000000000000000000000000000000000000000000000000000000900463ffffffff1680630d83304c146100bf578063210cb8c31461012b57806324ba506d1461016157806341c0e1b51461018c5780638ce2df4a146101a35780639ace38c21461031c578063a318cedc146105e2578063c47f0f901461063f578063cfc405c7146106ab578063e69fd1c5146106eb578063ee9228e91461079e578063f2fde38b146107f2575b600080fd5b3480156100cb57600080fd5b506100d4610835565b6040518080602001828103825283818151815260200191508051906020019060200280838360005b838110156101175780820151818401526020810190506100fc565b505050509050019250505060405180910390f35b61015f600480360381019080803573ffffffffffffffffffffffffffffffffffffffff1690602001909291905050506109c5565b005b34801561016d57600080fd5b50610176610a70565b6040518082815260200191505060405180910390f35b34801561019857600080fd5b506101a1610a7a565b005b61031a600480360381019080803573ffffffffffffffffffffffffffffffffffffffff16906020019092919080356fffffffffffffffffffffffffffffffff19169060200190929190803577ffffffffffffffffffffffffffffffffffffffffffffffff19169060200190929190803590602001908201803590602001908080601f0160208091040260200160405190810160405280939291908181526020018383808284378201915050505050509192919290803590602001908201803590602001908080601f0160208091040260200160405190810160405280939291908181526020018383808284378201915050505050509192919290803590602001908201803590602001908080601f0160208091040260200160405190810160405280939291908181526020018383808284378201915050505050509192919290803577ffffffffffffffffffffffffffffffffffffffffffffffff1916906020019092919080359060200190929190505050610b0f565b005b34801561032857600080fd5b5061034760048036038101908080359060200190929190505050610fff565b604051808c81526020018b73ffffffffffffffffffffffffffffffffffffffff1673ffffffffffffffffffffffffffffffffffffffff1681526020018a73ffffffffffffffffffffffffffffffffffffffff1673ffffffffffffffffffffffffffffffffffffffff168152602001896fffffffffffffffffffffffffffffffff19166fffffffffffffffffffffffffffffffff191681526020018877ffffffffffffffffffffffffffffffffffffffffffffffff191677ffffffffffffffffffffffffffffffffffffffffffffffff191681526020018060200180602001876fffffffffffffffffffffffffffffffff19166fffffffffffffffffffffffffffffffff19168152602001806020018677ffffffffffffffffffffffffffffffffffffffffffffffff191677ffffffffffffffffffffffffffffffffffffffffffffffff1916815260200185815260200184810384528a818151815260200191508051906020019080838360005b838110156104cf5780820151818401526020810190506104b4565b50505050905090810190601f1680156104fc5780820380516001836020036101000a031916815260200191505b50848103835289818151815260200191508051906020019080838360005b8381101561053557808201518184015260208101905061051a565b50505050905090810190601f1680156105625780820380516001836020036101000a031916815260200191505b50848103825287818151815260200191508051906020019080838360005b8381101561059b578082015181840152602081019050610580565b50505050905090810190601f1680156105c85780820380516001836020036101000a031916815260200191505b509e50505050505050505050505050505060405180910390f35b61063d600480360381019080803573ffffffffffffffffffffffffffffffffffffffff16906020019092919080356fffffffffffffffffffffffffffffffff19169060200190929190803590602001909291905050506112e5565b005b34801561064b57600080fd5b506106546115d3565b6040518080602001828103825283818151815260200191508051906020019060200280838360005b8381101561069757808201518184015260208101905061067c565b505050509050019250505060405180910390f35b3480156106b757600080fd5b506106e960048036038101908080356fffffffffffffffffffffffffffffffff19169060200190929190505050611763565b005b3480156106f757600080fd5b50610752600480360381019080803590602001908201803590602001908080601f0160208091040260200160405190810160405280939291908181526020018383808284378201915050505050509192919290505050611b3f565b604051808277ffffffffffffffffffffffffffffffffffffffffffffffff191677ffffffffffffffffffffffffffffffffffffffffffffffff1916815260200191505060405180910390f35b3480156107aa57600080fd5b506107dc60048036038101908080356fffffffffffffffffffffffffffffffff19169060200190929190505050611b82565b6040518082815260200191505060405180910390f35b3480156107fe57600080fd5b50610833600480360381019080803573ffffffffffffffffffffffffffffffffffffffff169060200190929190505050611b9a565b005b606080600080606060006003546040519080825280602002602001820160405280156108705781602001602082028038833980820191505090505b50945060009350600192505b6003548311151561093a573373ffffffffffffffffffffffffffffffffffffffff166001600085815260200190815260200160002060010160009054906101000a900473ffffffffffffffffffffffffffffffffffffffff1673ffffffffffffffffffffffffffffffffffffffff16141561092d576001600084815260200190815260200160002060000154858581518110151561091657fe5b906020019060200201818152505083806001019450505b828060010193505061087c565b836040519080825280602002602001820160405280156109695781602001602082028038833980820191505090505b509150600090505b838110156109ba57848181518110151561098757fe5b90602001906020020151828281518110151561099f57fe5b90602001906020020181815250508080600101915050610971565b819550505050505090565b60008173ffffffffffffffffffffffffffffffffffffffff16141515156109eb57600080fd5b8073ffffffffffffffffffffffffffffffffffffffff163373ffffffffffffffffffffffffffffffffffffffff1614151515610a2657600080fd5b8073ffffffffffffffffffffffffffffffffffffffff166108fc349081150290604051600060405180830381858888f19350505050158015610a6c573d6000803e3d6000fd5b5050565b6000600354905090565b6000809054906101000a900473ffffffffffffffffffffffffffffffffffffffff1673ffffffffffffffffffffffffffffffffffffffff163373ffffffffffffffffffffffffffffffffffffffff16141515610ad557600080fd5b6000809054906101000a900473ffffffffffffffffffffffffffffffffffffffff1673ffffffffffffffffffffffffffffffffffffffff16ff5b60008873ffffffffffffffffffffffffffffffffffffffff1614151515610b3557600080fd5b8773ffffffffffffffffffffffffffffffffffffffff163373ffffffffffffffffffffffffffffffffffffffff1614151515610b7057600080fd5b6000601060ff16111515610b8357600080fd5b6000600860ff16111515610b9657600080fd5b60008551111515610ba657600080fd5b60008451111515610bb657600080fd5b8034141515610bc457600080fd5b8060026000896fffffffffffffffffffffffffffffffff19166fffffffffffffffffffffffffffffffff19168152602001908152602001600020540160026000896fffffffffffffffffffffffffffffffff19166fffffffffffffffffffffffffffffffff19168152602001908152602001600020819055506003600081548092919060010191905055506101606040519081016040528060035481526020018973ffffffffffffffffffffffffffffffffffffffff1681526020013373ffffffffffffffffffffffffffffffffffffffff168152602001886fffffffffffffffffffffffffffffffff191681526020018777ffffffffffffffffffffffffffffffffffffffffffffffff1916815260200186815260200185815260200160006fffffffffffffffffffffffffffffffff191681526020018481526020018377ffffffffffffffffffffffffffffffffffffffffffffffff19168152602001828152506001600060035481526020019081526020016000206000820151816000015560208201518160010160006101000a81548173ffffffffffffffffffffffffffffffffffffffff021916908373ffffffffffffffffffffffffffffffffffffffff16021790555060408201518160020160006101000a81548173ffffffffffffffffffffffffffffffffffffffff021916908373ffffffffffffffffffffffffffffffffffffffff16021790555060608201518160030160006101000a8154816fffffffffffffffffffffffffffffffff02191690837001000000000000000000000000000000009004021790555060808201518160030160106101000a81548167ffffffffffffffff021916908378010000000000000000000000000000000000000000000000009004021790555060a0820151816004019080519060200190610e72929190611c38565b5060c0820151816005019080519060200190610e8f929190611c38565b5060e08201518160060160006101000a8154816fffffffffffffffffffffffffffffffff021916908370010000000000000000000000000000000090040217905550610100820151816007019080519060200190610eee929190611c38565b506101208201518160080160006101000a81548167ffffffffffffffff02191690837801000000000000000000000000000000000000000000000000900402179055506101408201518160090155905050866fffffffffffffffffffffffffffffffff19166003547f2b32baf6aa749dcf64450a053b74bb710daf1230f871b3688cc966dc060bde408a3385604051808473ffffffffffffffffffffffffffffffffffffffff1673ffffffffffffffffffffffffffffffffffffffff1681526020018373ffffffffffffffffffffffffffffffffffffffff1673ffffffffffffffffffffffffffffffffffffffff168152602001828152602001935050505060405180910390a35050505050505050565b60016020528060005260406000206000915090508060000154908060010160009054906101000a900473ffffffffffffffffffffffffffffffffffffffff16908060020160009054906101000a900473ffffffffffffffffffffffffffffffffffffffff16908060030160009054906101000a900470010000000000000000000000000000000002908060030160109054906101000a900478010000000000000000000000000000000000000000000000000290806004018054600181600116156101000203166002900480601f01602080910402602001604051908101604052809291908181526020018280546001816001161561010002031660029004801561114b5780601f106111205761010080835404028352916020019161114b565b820191906000526020600020905b81548152906001019060200180831161112e57829003601f168201915b505050505090806005018054600181600116156101000203166002900480601f0160208091040260200160405190810160405280929190818152602001828054600181600116156101000203166002900480156111e95780601f106111be576101008083540402835291602001916111e9565b820191906000526020600020905b8154815290600101906020018083116111cc57829003601f168201915b5050505050908060060160009054906101000a90047001000000000000000000000000000000000290806007018054600181600116156101000203166002900480601f0160208091040260200160405190810160405280929190818152602001828054600181600116156101000203166002900480156112aa5780601f1061127f576101008083540402835291602001916112aa565b820191906000526020600020905b81548152906001019060200180831161128d57829003601f168201915b5050505050908060080160009054906101000a900478010000000000000000000000000000000000000000000000000290806009015490508b565b60008060008573ffffffffffffffffffffffffffffffffffffffff161415151561130e57600080fd5b8473ffffffffffffffffffffffffffffffffffffffff163373ffffffffffffffffffffffffffffffffffffffff161415151561134957600080fd5b6000601060ff1611151561135c57600080fd5b823414151561136a57600080fd5b600091505b600354821115156115cc57836fffffffffffffffffffffffffffffffff19166001600084815260200190815260200160002060030160009054906101000a9004700100000000000000000000000000000000026fffffffffffffffffffffffffffffffff191614156115bf576001600083815260200190815260200160002060020160009054906101000a900473ffffffffffffffffffffffffffffffffffffffff1673ffffffffffffffffffffffffffffffffffffffff163373ffffffffffffffffffffffffffffffffffffffff1614151561144b57600080fd5b6001600083815260200190815260200160002060080160009054906101000a900478010000000000000000000000000000000000000000000000000277ffffffffffffffffffffffffffffffffffffffffffffffff19166114e06040805190810160405280600481526020017f7061696400000000000000000000000000000000000000000000000000000000815250611b3f565b77ffffffffffffffffffffffffffffffffffffffffffffffff191614151561150757600080fd5b6001600083815260200190815260200160002060010160009054906101000a900473ffffffffffffffffffffffffffffffffffffffff1690503460016000848152602001908152602001600020600901540160016000848152602001908152602001600020600901819055508073ffffffffffffffffffffffffffffffffffffffff166108fc349081150290604051600060405180830381858888f193505050501580156115b9573d6000803e3d6000fd5b506115cc565b818060010192505061136f565b5050505050565b6060806000806060600060035460405190808252806020026020018201604052801561160e5781602001602082028038833980820191505090505b50945060009350600192505b600354831115156116d8573373ffffffffffffffffffffffffffffffffffffffff166001600085815260200190815260200160002060020160009054906101000a900473ffffffffffffffffffffffffffffffffffffffff1673ffffffffffffffffffffffffffffffffffffffff1614156116cb57600160008481526020019081526020016000206000015485858151811015156116b457fe5b906020019060200201818152505083806001019450505b828060010193505061161a565b836040519080825280602002602001820160405280156117075781602001602082028038833980820191505090505b509150600090505b8381101561175857848181518110151561172557fe5b90602001906020020151828281518110151561173d57fe5b9060200190602002018181525050808060010191505061170f565b819550505050505090565b600080600080600093505b60035484111515611b3857846fffffffffffffffffffffffffffffffff19166001600086815260200190815260200160002060030160009054906101000a9004700100000000000000000000000000000000026fffffffffffffffffffffffffffffffff19161415611b2b576001600085815260200190815260200160002060020160009054906101000a900473ffffffffffffffffffffffffffffffffffffffff1673ffffffffffffffffffffffffffffffffffffffff163373ffffffffffffffffffffffffffffffffffffffff1614151561184a57600080fd5b6001600085815260200190815260200160002060080160009054906101000a900478010000000000000000000000000000000000000000000000000277ffffffffffffffffffffffffffffffffffffffffffffffff19166118df6040805190810160405280600481526020017f7061696400000000000000000000000000000000000000000000000000000000815250611b3f565b77ffffffffffffffffffffffffffffffffffffffffffffffff19161415151561190757600080fd5b6001600085815260200190815260200160002060020160009054906101000a900473ffffffffffffffffffffffffffffffffffffffff1692506001600085815260200190815260200160002060010160009054906101000a900473ffffffffffffffffffffffffffffffffffffffff16915060016000858152602001908152602001600020600901549050600060026000876fffffffffffffffffffffffffffffffff19166fffffffffffffffffffffffffffffffff19168152602001908152602001600020541115156119da57600080fd5b8060026000876fffffffffffffffffffffffffffffffff19166fffffffffffffffffffffffffffffffff19168152602001908152602001600020540360026000876fffffffffffffffffffffffffffffffff19166fffffffffffffffffffffffffffffffff19168152602001908152602001600020819055508173ffffffffffffffffffffffffffffffffffffffff166108fc829081150290604051600060405180830381858888f19350505050158015611a99573d6000803e3d6000fd5b50611ad86040805190810160405280600481526020017f7061696400000000000000000000000000000000000000000000000000000000815250611b3f565b6001600086815260200190815260200160002060080160006101000a81548167ffffffffffffffff0219169083780100000000000000000000000000000000000000000000000090040217905550611b38565b838060010194505061176e565b5050505050565b60006060829050600081511415611b745760007801000000000000000000000000000000000000000000000000029150611b7c565b600883015191505b50919050565b60026020528060005260406000206000915090505481565b6000809054906101000a900473ffffffffffffffffffffffffffffffffffffffff1673ffffffffffffffffffffffffffffffffffffffff163373ffffffffffffffffffffffffffffffffffffffff16141515611bf557600080fd5b806000806101000a81548173ffffffffffffffffffffffffffffffffffffffff021916908373ffffffffffffffffffffffffffffffffffffffff16021790555050565b828054600181600116156101000203166002900490600052602060002090601f016020900481019282601f10611c7957805160ff1916838001178555611ca7565b82800160010185558215611ca7579182015b82811115611ca6578251825591602001919060010190611c8b565b5b509050611cb49190611cb8565b5090565b611cda91905b80821115611cd6576000816000905550600101611cbe565b5090565b905600a165627a7a72305820fc06fd9b7f2254732306f1824ad4e5030a3a95c6d481dc8e014447ef0a9c59820029",
  "source": "pragma solidity ^0.4.23;\r\n\r\nlibrary SafeMath {\r\n  function mul(uint256 a, uint256 b) internal constant returns (uint256) {\r\n    uint256 c = a * b;\r\n    assert(a == 0 || c / a == b);\r\n    return c;\r\n  }\r\n\r\n  function div(uint256 a, uint256 b) internal constant returns (uint256) {\r\n    // assert(b > 0); // Solidity automatically throws when dividing by 0\r\n    uint256 c = a / b;\r\n    // assert(a == b * c + a % b); // There is no case in which this doesn't hold\r\n    return c;\r\n  }\r\n\r\n  function sub(uint256 a, uint256 b) internal constant returns (uint256) {\r\n    assert(b <= a);\r\n    return a - b;\r\n  }\r\n\r\n  function add(uint256 a, uint256 b) internal constant returns (uint256) {\r\n    uint256 c = a + b;\r\n    assert(c >= a);\r\n    return c;\r\n  }\r\n}\r\n\r\ncontract Ownable {\r\n  // state variables\r\n  address owner;\r\n\r\n  // modifiers\r\n  modifier onlyOwner() {\r\n    require(msg.sender == owner);\r\n    _;\r\n  }\r\n\r\n  // constructor\r\n  function Ownable() public {\r\n    owner = msg.sender;\r\n  }\r\n\r\n  /**\r\n     * @dev Allows the current owner to transfer control of the contract to a newOwner.\r\n     * @param newOwner The address to transfer ownership to.\r\n     */\r\n  function transferOwnership(address newOwner) onlyOwner {\r\n    owner = newOwner;\r\n  }\r\n\r\n}\r\n\r\ncontract Transaction is Ownable {\r\n  // custom types\r\n  struct TransactionNeoPlace {\r\n    uint id;\r\n    address seller;\r\n    address buyer;\r\n    bytes16 itemId;\r\n    bytes8 typeItem;\r\n    string location;\r\n    string pictureHash;\r\n    bytes16 receiptHash;\r\n    string comment;\r\n    bytes8 status;\r\n    uint256 _price;\r\n  }\r\n\r\n  // state variables\r\n  mapping(uint => TransactionNeoPlace) public transactions;\r\n  mapping(bytes16 => uint256) public fundsLocked;\r\n\r\n  uint transactionCounter;\r\n\r\n  // events\r\n  event BuyItem(\r\n    uint indexed _id,\r\n    bytes16 indexed _itemId,\r\n    address _seller,\r\n    address _buyer,\r\n    uint256 _price\r\n  );\r\n\r\n  function kill() public onlyOwner {\r\n    selfdestruct(owner);\r\n  }\r\n\r\n  // fetch the number of transactions in the contract\r\n  function getNumberOfTransactions() public view returns (uint) {\r\n    return transactionCounter;\r\n  }\r\n\r\n  // fetch and return all sales of the seller\r\n  function getSales() public view returns (uint[]) {\r\n    // prepare output array\r\n    uint[] memory transactionIds = new uint[](transactionCounter);\r\n\r\n    uint numberOfSales = 0;\r\n\r\n    // iterate over transactions\r\n    for(uint i = 1; i <= transactionCounter; i++) {\r\n      // keep the ID if the transaction owns to the seller\r\n      if(transactions[i].seller == msg.sender) {\r\n        transactionIds[numberOfSales] = transactions[i].id;\r\n        numberOfSales++;\r\n      }\r\n    }\r\n\r\n    // copy the transactionIds array into a smaller getSales array\r\n    uint[] memory sales = new uint[](numberOfSales);\r\n    for(uint j = 0; j < numberOfSales; j++) {\r\n      sales[j] = transactionIds[j];\r\n    }\r\n    return sales;\r\n  }\r\n\r\n  // fetch and return all purchases of the buyer\r\n  function getPurchases() public view returns (uint[]) {\r\n    // prepare output array\r\n    uint[] memory transactionIds = new uint[](transactionCounter);\r\n\r\n    uint numberOfBuy = 0;\r\n\r\n    // iterate over transactions\r\n    for(uint i = 1; i <= transactionCounter; i++) {\r\n      // keep the ID if the transaction owns to the seller\r\n      if(transactions[i].buyer == msg.sender) {\r\n        transactionIds[numberOfBuy] = transactions[i].id;\r\n        numberOfBuy++;\r\n      }\r\n    }\r\n\r\n    // copy the transactionIds array into a smaller getBuy array\r\n    uint[] memory buy = new uint[](numberOfBuy);\r\n    for(uint j = 0; j < numberOfBuy; j++) {\r\n      buy[j] = transactionIds[j];\r\n    }\r\n    return buy;\r\n  }\r\n\r\n  // new transaction / buy item\r\n  function buyItem(address _seller, bytes16 _itemId, bytes8 _typeItem, string _location, string _pictureHash, string _comment, bytes8 _status, uint256 _price) payable public {\r\n    // address not null\r\n    require(_seller != 0x0);\r\n    // seller don't allow to buy his own item\r\n    require(msg.sender != _seller);\r\n\r\n    require(_itemId.length > 0);\r\n    require(_typeItem.length > 0);\r\n    require(bytes(_location).length > 0);\r\n    require(bytes(_pictureHash).length > 0);\r\n    //require(bytes(_comment).length > 0);\r\n\r\n    require(msg.value == _price);\r\n\r\n\r\n    // lock and put the funds in escrow\r\n    //_seller.transfer(msg.value);\r\n    fundsLocked[_itemId]=fundsLocked[_itemId] + _price;\r\n\r\n    // new transaction\r\n    transactionCounter++;\r\n\r\n    // store the new transaction\r\n    transactions[transactionCounter] = TransactionNeoPlace(\r\n      transactionCounter,\r\n      _seller,\r\n      msg.sender,\r\n      _itemId,\r\n      _typeItem,\r\n      _location,\r\n      _pictureHash,\r\n      \"\",\r\n      _comment,\r\n      _status,\r\n      _price\r\n    );\r\n\r\n    // trigger the new transaction\r\n    BuyItem(transactionCounter, _itemId, _seller, msg.sender, _price);\r\n  }\r\n\r\n  // send additional funds\r\n  //TODO merge with unlockFunds\r\n  function sendAdditionalFunds(address _seller, bytes16 _itemId, uint256 _price) payable public {\r\n    // address not null\r\n    require(_seller != 0x0);\r\n    // seller don't allow to buy his own item\r\n    require(msg.sender != _seller);\r\n\r\n    require(_itemId.length > 0);\r\n\r\n    require(msg.value == _price);\r\n\r\n    for(uint i = 0; i <= transactionCounter; i++) {\r\n      if(transactions[i].itemId == _itemId) {\r\n\r\n        require(msg.sender == transactions[i].buyer);\r\n        require(stringToBytes8(\"paid\") == transactions[i].status);\r\n        address seller = transactions[i].seller;\r\n        transactions[i]._price = transactions[i]._price + msg.value;\r\n\r\n        //transfer fund from client to vendor\r\n        seller.transfer(msg.value);\r\n\r\n        break;\r\n      }\r\n    }\r\n  }\r\n\r\n  function unlockFunds(bytes16 _itemId) public {\r\n\r\n    for(uint i = 0; i <= transactionCounter; i++) {\r\n      if(transactions[i].itemId == _itemId) {\r\n\r\n        require(msg.sender == transactions[i].buyer);\r\n        require(stringToBytes8(\"paid\") != transactions[i].status);\r\n        address buyer = transactions[i].buyer;\r\n        address seller = transactions[i].seller;\r\n        uint256 priceTransaction = transactions[i]._price;\r\n\r\n        require(fundsLocked[_itemId]>0);\r\n        fundsLocked[_itemId]=fundsLocked[_itemId] - (priceTransaction);\r\n\r\n        //transfer fund from client to vendor\r\n        seller.transfer(priceTransaction);\r\n\r\n        transactions[i].status = stringToBytes8('paid');\r\n\r\n        break;\r\n      }\r\n    }\r\n  }\r\n\r\n   function sendAmount(address seller) payable public {\r\n      // address not null\r\n      require(seller != 0x0);\r\n      // seller don't allow to buy his own item\r\n      require(msg.sender != seller);\r\n\r\n      seller.transfer(msg.value);\r\n   }\r\n\r\n  function stringToBytes8(string memory source) returns (bytes8 result) {\r\n    bytes memory tempEmptyStringTest = bytes(source);\r\n    if (tempEmptyStringTest.length == 0) {\r\n      return 0x0;\r\n    }\r\n\r\n    assembly {\r\n      result := mload(add(source, 8))\r\n    }\r\n  }\r\n\r\n}\r\n",
  "sourcePath": "D:\\web\\frontend\\contracts\\Transaction.sol",
  "compiler": {
    "name": "solc",
    "version": "0.4.24+commit.e67f0147.Emscripten.clang"
  },
  "schemaVersion": "2.0.0",
  "updatedAt": "2018-06-06T20:38:54.757Z"
}